:020000040800F2
:10000000B01D002045010008592200085B220008AD
:100010005F22000863220008672200080000000039
:100020000000000000000000000000006B2200083B
:100030006D220008000000006F22000871220008F5
:100040005F0100085F0100085F0100085F01000810
:100050005F0100085F0100085F0100085F01000800
:100060005F010008432900089D2900085F0100087E
:100070005F0100085F0100085F0100085F010008E0
:100080005F0100085F0100085F0100085F010008D0
:100090005F0100085F0100085F010008F729000800
:1000A0005F0100085F0100085F0100085F010008B0
:1000B000053F0008134200085F0100085F010008C7
:1000C0005F0100085F0100085F0100085F01000890
:1000D0005F010008452500085F0100081D26000893
:1000E0004B2A00085F0100085F0100085F0100085B
:1000F0005F0100085F0100085F0100085F01000860
:100100005F0100085F0100085F0100085F0100084F
:1001100033670008956800088B4F00088F7B000844
:100120005F0100085F0100085F0100085F0100082F
:10013000DFF80CD015F064FE00480047651E00088B
:10014000B01D00200648804706480047FEE7FEE74E
:10015000FEE7FEE7FEE7FEE7FEE7FEE7FEE7FEE777
:1001600047020008310100080CB500200190009002
:100170006C48006840F480306A49086000BF6948F4
:10018000006800F4003000900198401C0190009835
:1001900018B90198B0F5A06FF1D16248006800F479
:1001A000003010B10120009001E000200090009884
:1001B000012843D15C48006840F010005A490860AB
:1001C0000846006820F0030008600846006840F018
:1001D0000200086053484068524948600846406839
:1001E00048600846406840F48060486008464068BF
:1001F00020F47C1048600846406840F4E8104860ED
:100200000846006840F08070086000BF45480068FC
:1002100000F000700028F9D04248406820F0030048
:10022000404948600846406840F00200486000BF0E
:100230003C48406800F00C000828F9D10CBD10B50E
:10024000FFF792FF10BD10B53648006840F001007E
:1002500034490860084640683449084031494860DC
:1002600008460068324908402E4908600846006880
:1002700020F4802008600846406820F4FE004860B2
:100280004FF41F008860FFF7DAFF4FF00060294944
:10029000086010BD10B5002100200022214B5B68D2
:1002A00003F00C0121B1042906D0082928D107E068
:1002B000214B224C236027E01F4B204C236023E07E
:1002C000184B5B6803F47010164B5B6803F48032C4
:1002D000022303EB904022B9194B4343174C236090
:1002E0000DE0104B5B6803F4003323B1144B434320
:1002F000124C236003E0104B4343104C236003E097
:100300000D4B0E4C236000BF00BF064B5B68C3F370
:1003100003130C4CE15C094B1B68CB40074C23607A
:1003200010BD000000100240002002400000FFF855
:10033000FFFFF6FE08ED00E000127A00000000204A
:1003400000093D000400002031490143314A116099
:10035000704770B5002100230F22C47804B32D4CE0
:10036000246804F4E064C4F5E064210AC1F10403E4
:10037000CA40447804FA03F1847814402143090107
:10038000254C0678A155047804F01F050124AC40E3
:1003900005786D11AD0005F1E025C5F8004109E0D3
:1003A000047804F01F050124AC401C4D067876113A
:1003B00045F8264070BD1A4A0A400243154B1B1FE0
:1003C0001A60704739B1134A121D12680243114B6B
:1003D0001B1D1A6006E00F4A121D126882430D4B66
:1003E0001B1D1A607047042808D14FF0E0210969ED
:1003F00041F004014FF0E022116107E04FF0E021ED
:10040000096921F004014FF0E022116170470000FA
:100410000000FA050CED00E000E400E080E100E0FF
:1004200080FFFF1F002044490860091D0860091D66
:100430000860091D086041483F4914310860704751
:1004400000213D498279002A3AD00A4612680368A1
:100450009A430B461A600A1D126803689A430B1DE3
:100460001A60027911440A6803681A430A60324A22
:100470000832126803689A432F4B08331A601A1D1A
:10048000126803689A432C4B0C331A604279102A85
:100490000ED11A1F126803681A43274B08331A60DB
:1004A0001A1D126803681A43234B0C331A600DE0BF
:1004B0002149427911440A6803681A430A6005E039
:1004C000027911440A6803689A430A607047002160
:1004D000016001710C214171002181717047164941
:1004E000103109680143144A103211607047014607
:1004F0000020114A143212680A400AB1012000E0BB
:10050000002070470C4914310860704701460020F4
:100510000022094B1B6803EA0102074B14331B68D6
:100520000B4013B10AB1012000E0002070470249DE
:10053000143108607047000000040140FFFF0F0005
:1005400010B50446CC48844208D10121042000F0B3
:100550002DFB0021042000F029FB46E0C74884421F
:1005600008D10121082000F021FB0021082000F023
:100570001DFB3AE0C248844208D10121102000F05E
:1005800015FB0021102000F011FB2EE0BD48844235
:1005900008D10121202000F009FB0021202000F0DB
:1005A00005FB22E0B848844208D10121402000F038
:1005B000FDFA0021402000F0F9FA16E0B348844229
:1005C00008D10121802000F0F1FA0021802000F004
:1005D000EDFA0AE0AE48844207D10121801500F00F
:1005E000E5FA0021A01500F0E1FA10BD10B50121D7
:1005F000084600F0DBFA0021012000F0D7FA10BD18
:100600002DE9F041024600250026002000230024A9
:10061000002791F803C00CF00F0591F803C00CF00F
:10062000100CBCF1000F03D091F802C04CEA050594
:1006300091F800C0BCF1000F31D0146800202BE00D
:100640004FF0010C0CFA00F3B1F800C00CEA0306FD
:100650009E4220D183004FF00F0C0CFA03F7BC43ED
:1006600005FA03FC4CEA040491F803C0BCF1280F1E
:1006700006D14FF0010C0CFA00FCC2F814C00AE0DD
:1006800091F803C0BCF1480F05D14FF0010C0CFAF2
:1006900000FCC2F810C0401C0828D1D31460B1F887
:1006A00000C0BCF1FF0F34DD546800202EE000F1E3
:1006B000080C4FF0010808FA0CF3B1F800C00CEA7E
:1006C00003069E4221D183004FF00F0C0CFA03F772
:1006D000BC4305FA03FC4CEA040491F803C0BCF1E6
:1006E000280F05D100F1080C08FA0CF8C2F81480A4
:1006F00091F803C0BCF1480F07D100F1080C4FF08E
:10070000010808FA0CF8C2F81080401C0828CED363
:100710005460BDE8F0814FF6FF71018002218170C5
:100720000421C17070470246002093680B400BB152
:10073000012000E0002070470146886880B27047C1
:1007400002460020D3680B400BB1012000E00020DE
:1007500070470146C86880B27047016170474161C7
:1007600070470AB1016100E041617047C1607047A4
:100770004FF480320A4382618161826182698269B9
:10078000704702460020434B18684FF680731840AC
:1007900040EA021008433F4B186070473E49C86169
:1007A0007047F0B50A46002300240021002500F020
:1007B0000046B6F1004F02D1364EF16901E0354EE8
:1007C0007168C0F3034583B200F44016B6F5401FCC
:1007D00008D121F070612F4E766826F070662D4F9B
:1007E0007E6012E000F48016B6F5801F06D1032665
:1007F00006FA05F4A14341F0706106E0460D3601AA
:1008000003FA06F6B14341F0706122B1460D36019C
:1008100003FA06F6314300F00046B6F1004F02D16C
:100820001C4EF16101E01B4E7160F0BD30B500223D
:100830008B071C0F0F2303FA04F2164B08338C109E
:1008400053F824309343134C08348D1044F825306A
:1008500023468C1053F824308C07240F00FA04F43C
:1008600023430C4C08348D1044F8253030BD0A4920
:10087000DC3108607047000000080140000C0140B6
:10088000001001400014014000180140001C01400C
:10089000002001400000014000002042DF480068C5
:1008A00040F00100DD49086008464068DC49084026
:1008B000DA49486008460068DA490840D7490860C4
:1008C0000846006820F4802008600846406820F44C
:1008D000FE0048604FF41F0088607047CF490968E8
:1008E00021F48031CD4A11601146096821F480213C
:1008F0001160B0F5803F03D0B0F5802F0ED106E037
:10090000C649096841F48031C44A116007E0C3490F
:10091000096841F4A021C14A116000E000BF00BF96
:10092000704710B501460022002300204A11012A19
:1009300002D1BA4C236806E0022A02D1B74C236ADE
:1009400001E0B64C636A01F01F02012494401C4090
:100950000CB1012000E0002010BD38B5002000904F
:100960000024002500BF3120FFF7DBFF054600987B
:10097000401C00900098B0F5A06F01D0002DF2D07F
:100980003120FFF7CEFF08B1012400E0002420460B
:1009900038BD01460020A14A106820F0F80040EA66
:1009A000C10010607047A0490860704702460020EF
:1009B0009A4B586820F47C1042EA01031843974B85
:1009C0005860704798490866704701460020934A6E
:1009D000506820F003000843506070478F4840681B
:1009E00000F00C007047014600208C4A506820F04F
:1009F000F00008435060704701460020874A506865
:100A000020F4E06008435060704701460020834AAC
:100A1000506820F4605040EAC1005060704729B12E
:100A20007E4A527A02437D4B5A7204E07B4A527AE4
:100A300082437A4B5A7270477B49D83108607047BD
:100A400001460020754A506820F440400843506039
:100A500070470021714A20321170704A82F82010CC
:100A6000012802D004280AD104E001216B4A203277
:100A7000117005E00521694A2032117000E000BFC5
:100A800000BF70476949086070476449096A0143BB
:100A9000624A11627047654944390860704730B551
:100AA00000210022002400235C4D6D6805F00C013C
:100AB00021B1042905D0082923D105E05C4D05604A
:100AC00022E05B4D05601FE0544D6D6805F4701227
:100AD000524D6D6805F48034022505EB92421CB935
:100AE000544D554305600BE04C4D6D6805F40035E1
:100AF0001DB1504D5543056002E04D4D5543056015
:100B000002E04B4D056000BF00BF444D6D6805F02D
:100B1000F0010909484D6B5C0568DD4045603F4DBB
:100B20006D6805F4E061090A434D6B5C4568DD4082
:100B300085603A4D6D6805F46051C90A3E4D6B5CA5
:100B40004568DD40C560354D6D6805F44041890B51
:100B50003A4D6B5CC568B5FBF3F5056130BD29B155
:100B60002E4A526902432D4B5A6104E02B4A5269C6
:100B700082432A4B5A61704729B1284A926902433D
:100B8000264B9A6104E0254A92698243234B9A617D
:100B9000704729B1214AD2690243204BDA6104E04F
:100BA0001E4AD26982431D4BDA61704729B11B4A44
:100BB000D2680243194BDA6004E0184AD2688243D3
:100BC000164BDA60704729B1144A12690243134B7D
:100BD0001A6104E0114A12698243104B1A6170478E
:100BE00012494039086070470F49C86470470B4983
:100BF000C87170470948406A40F0807007494862F0
:100C0000704701460020054A92680A400AB1012057
:100C100000E00020704701498872704700100240D0
:100C20000000FFF8FFFFF6FE00004242800442424F
:100C300000127A0000093D0014000020240000206A
:100C400010B50446FE48844208D10121C014FFF7C4
:100C5000ADFF0021E014FFF7A9FFC4E0B4F1804F1D
:100C600008D101210846FFF7AEFF00210120FFF760
:100C7000AAFFB8E0F348844208D101210220FFF71F
:100C8000A2FF00210220FFF79EFFACE0EE48844265
:100C900008D101210420FFF796FF00210420FFF76F
:100CA00092FFA0E0E948844208D101210820FFF723
:100CB0008AFF00210820FFF786FF94E0E448844281
:100CC00008D101211020FFF77EFF00211020FFF73F
:100CD0007AFF88E0DF48844208D101212020FFF715
:100CE00072FF00212020FFF76EFF7CE0DA4884428B
:100CF00008D101214014FFF759FF00216014FFF7CC
:100D000055FF70E0D548844209D10121C804FFF79E
:100D10004DFF00214FF40020FFF748FF63E0D0486B
:100D2000844209D101210805FFF740FF00214FF45B
:100D30008010FFF73BFF56E0CA48844209D10121E9
:100D40004805FFF733FF00214FF40010FFF72EFF97
:100D500049E0C548844208D101214020FFF733FF14
:100D600000214020FFF72FFF3DE0C048844208D11A
:100D700001218020FFF727FF00218020FFF723FFBC
:100D800031E0BB48844208D101218015FFF71BFFE9
:100D90000021A015FFF717FF25E0B648844209D1CE
:100DA00001210804FFF702FF00214FF48030FFF714
:100DB000FDFE18E0B048844209D101214804FFF744
:100DC000F5FE00214FF40030FFF7F0FE0BE0AB48DA
:100DD000844208D101218804FFF7E8FE00214FF486
:100DE0008020FFF7E3FE10BD00220288944B98425A
:100DF0000ED0994B98420BD0B0F1804F08D0914B58
:100E0000984205D0904B984202D0904B984204D122
:100E10004FF68F731A404B881A438D4B984207D078
:100E20008C4B984204D04FF6FF431A40CB881A43AC
:100E300002808B8883850B880385814B98420BD079
:100E4000854B984208D08B4B984205D08A4B9842EC
:100E500002D08A4B984201D10B7A03860123838208
:100E6000704770B5002400220023058C4FF6FE76F3
:100E700035400584028C8388048B4FF68F752C4097
:100E8000B51E2C400D882C43751E2A400D892A431F
:100E90004D882A436A4DA8420BD06F4DA84208D016
:100EA000744DA84205D0744DA84202D0734DA8429B
:100EB00013D14FF6F7752A404D892A434FF6FB753B
:100EC0002A408D882A434FF6FF652B404FF6FF5589
:100ED0002B408D892B43CD892B4383800483CD8880
:100EE0008586028470BD70B5002400220023058C25
:100EF0004FF6EF7635400584028C8388048B48F6E4
:100F0000FF752C404FF6FF452C400D884FF6FF76BD
:100F100006EA05252C434FF6DF752A400D8906EABF
:100F200005152A434D8806EA05152A43444DA84273
:100F300002D0494DA8421DD14FF67F752A404D89F8
:100F40004FF6FF7606EA05152A434FF6BF752A408D
:100F50008D8806EA05152A434FF6FF352B404FF2E0
:100F6000FF752B408D8906EA85052B43CD8906EA5E
:100F700085052B4383800483CD880587028470BD5B
:100F800070B5002400220023058C4FF6FF66354023
:100F90000584028C8388848B4FF68F752C404FF626
:100FA000FC752C400D882C434FF6FF552A400D89C7
:100FB0004FF6FF7606EA05252A434D8806EA052501
:100FC0002A431F4DA84202D0234DA8421DD14FF203
:100FD000FF752A404D894FF6FF7606EA05252A431C
:100FE0004FF6FF352A408D8806EA05252A434EF63E
:100FF000FF752B404DF6FF752B408D8906EA0515D0
:101000002B43CD8906EA05152B4383808483CD8845
:101010008587028470BD70B5002200230024058CF2
:101020004EF6FF7635400584038C8488828B48F623
:10103000FF752A404FF6FF452A400D8820E000004A
:10104000002C01400004004000080040000C00405B
:10105000001000400014004000340140004C0140EA
:10106000005001400054014000180040001C0040A6
:101070000020004000400140004401400048014081
:101080004FF6FF7606EA05252A434DF6FF752B40FD
:101090000D8906EA05352B434D8806EA05352B43B5
:1010A000FA4DA84202D0FA4DA84208D14BF6FF757E
:1010B0002C408D894FF6FF7606EA85152C438480F7
:1010C0008283CD88A0F84050038470BD828B4FF29C
:1010D000FF331A408283828B4FF6FF7303EA0123AA
:1010E0001A4382837047F0B50C4615460022002152
:1010F0000026078C4EF6FF7C07EA0C070784828BDC
:10110000018C4FF6FF7707EA043640F6FF473A4076
:101110004FF6FF7707EA05273A434FF6FF7707EACE
:1011200003373A43D94FB8420ED0D94FB8420BD00B
:10113000B0F1804F08D0D74FB84205D0D64FB84253
:1011400002D0D64FB84206D14DF6FF77394046F46B
:101150008057394305E047F6FF57394044F480573C
:10116000394382830184F0BD828B4FF6F3731A40BA
:101170008283828B0A4382837047F0B50C46154602
:10118000002200210026078C4FF6FF6C07EA0C07AF
:101190000784828B018C4FF6FF7707EA04264FF60F
:1011A0000C773A404FF6FF7707EA03172F433A438D
:1011B000B64FB8420ED0B64FB8420BD0B0F1804F08
:1011C00008D0B44FB84205D0B34FB84202D0B34FA5
:1011D000B84206D14FF6FF57394046F4807739437D
:1011E00005E04FF2FF57394044F48077394382835A
:1011F0000184F0BD028B4FF2FF331A400283028B51
:101200004FF6FF7303EA01231A4302837047F0B5D8
:101210000C461546002200210026078C4FF6EF7C75
:1012200007EA0C070784028B018C4FF6FF7707EA69
:10123000041640F6FF473A404FF6FF7707EA0337B8
:101240003A434FF6FF7707EA05273A438F4FB842F4
:101250000ED08F4FB8420BD0B0F1804F08D08D4FD9
:10126000B84205D08C4FB84202D08C4FB84206D15C
:101270004FF6DF77394046F01007394305E04FF667
:101280005F77394044F01007394302830184F0BD91
:10129000028B4FF6F3731A400283028B0A430283D8
:1012A0007047F0B50C46154600220021068C4FF61B
:1012B000FE773E400684028B018C4FF60C7632405E
:1012C0007E1C06EA03162E433243704EB0420ED007
:1012D0006F4EB0420BD0B0F1804F08D06D4EB0428F
:1012E00005D06D4EB04202D06C4EB04206D14FF6E2
:1012F000FD76314044F00106314305E04FF6F576C6
:10130000314044F00106314302830184F0BD70B5E1
:1013100005460C465D4885420ED05D4885420BD09F
:10132000B5F1804F08D05B48854205D05A488542C8
:1013300002D05A48854200D100E000BF208850B951
:101340002389A28861882846FFF7ABFFE1882846F9
:10135000FFF79EFF25E0208804280AD12389A28870
:1013600061882846FFF753FFE1882846FFF742FFD0
:1013700017E0208808280AD12389A2886188284696
:10138000FFF7FBFEE1882846FFF7EEFE09E0238920
:10139000A28861882846FFF7A6FEE1882846FFF765
:1013A00095FE70BD2DE9F04105460C46002601274B
:1013B000608808B9022600E00026A088012801D133
:1013C000022700E001272088A0B92389A28861882C
:1013D0002846FFF766FFE1882846FFF759FF238973
:1013E0003A4631462846FFF712FFE1882846FFF7C4
:1013F00001FF13E02389A28861882846FFF707FFD1
:10140000E1882846FFF7F6FE23893A46314628460A
:10141000FFF747FFE1882846FFF73AFFBDE8F08174
:101420000A884B881A438B881A43CB881A430B8946
:101430001A434B891A438B891A43A0F844207047FA
:101440004FF6FF71818000210180C18041800172CF
:1014500070470021018041808180C18001814181EC
:101460008181C181704700210180418001218180FB
:101470000021C1800181704700210180418081806D
:10148000C18001814181818170470000002C0140B1
:10149000003401400004004000080040000C0040FF
:1014A00021B1028842F00102028004E002884FF676
:1014B000FE731A400280704731B1B0F8442042F404
:1014C0000042A0F8442005E0B0F84420C2F30E0228
:1014D000A0F8442070471AB183890B43838102E04E
:1014E00083898B43838170478182704741EA02037D
:1014F000A0F8483070471AB183890B43838102E01A
:1015000083898B438381704701894FF6F8721140BC
:10151000018170470A46002101894FF68F731940F7
:1015200011430181704730B504460D4629462046D7
:10153000FFF7F0FF208940F00700208130BD2DE942
:10154000F04104460D4616461F46602D06D13B4627
:10155000012231462046FFF75AFE05E03B460122B4
:1015600031462046FFF79DFE29462046FFF7D2FF71
:10157000208940F007002081BDE8F08130B50C469D
:1015800000210189C9B24FF6FF7505EA032515430D
:1015900025432943018130BD2DE9F04105460E4622
:1015A00017469846002443463A4631462846FFF7F8
:1015B000E5FF2C894FF6F870044044F007044FF61D
:1015C0008F70044044F070042C81BDE8F081F0B5C8
:1015D00004460D4616461F463B46324629462046DF
:1015E000FFF7CCFF208940F480402081F0BD0185C9
:1015F000828270470A46002101884FF68F73194096
:10160000114301807047F0B50C4615461E46002177
:10161000002200230189028B038C4FF6F8773940B2
:1016200021434FF6FC473A4040F201173A434FF648
:10163000DD773B404FF6FF7707EA06172F433B4322
:10164000018102830384F0BD0A460021018B4FF61D
:101650008F7319401143018370470A460021018BA3
:1016600048F6FF7319404FF6FF7303EA022319434C
:10167000018370470A460021818B4FF68F73194012
:101680001143818370470A460021818B48F6FF731E
:1016900019404FF6FF7303EA022319438183704711
:1016A00021B1028842F08002028004E002884FF6F5
:1016B0007F731A400280704721B1828842F0040291
:1016C000828004E082884FF6FB731A408280704764
:1016D00021B1828842F00802828004E082884FF6BD
:1016E000F7731A408280704721B1828842F001026C
:1016F000828004E082884FF6FE731A408280704731
:101700000A460021018B4FF6F773194011430183FC
:1017100070470A460021018B4FF2FF7319404FF6C4
:10172000FF7303EA02231943018370470A4600212D
:10173000818B4FF6F77319401143818370470A4636
:101740000021818B4FF2FF7319404FF6FF7303EABC
:1017500002231943818370470A460021018B4FF60B
:10176000FB7319401143018370470A460021018B26
:101770004FF6FF3319404FF6FF7303EA0223194374
:10178000018370470A460021818B4FF6FB73194095
:101790001143818370470A460021818B4FF6FF3346
:1017A00019404FF6FF7303EA022319438183704700
:1017B0000A460021018B4FF67F73194011430183C4
:1017C00070470A460021018BC1F30E014FF6FF73EB
:1017D00003EA02231943018370470A460021818BE3
:1017E0004FF67F7319401143818370470A460021E9
:1017F000818BC1F30E014FF6FF7303EA02231943F5
:10180000818370470A460021018C4FF6FD73194011
:101810001143018470470A460021018C4FF6F7738B
:1018200019401143018470470A460021018C4FF68C
:10183000DF7319404FF6FF7303EA02131943018463
:1018400070470A460021018C4FF67F7319404FF60E
:10185000FF7303EA02131943018470470A4600210B
:10186000018C4FF6FF5319404FF6FF7303EA022332
:101870001943018470470A460021018C4FF2FF731F
:1018800019404FF6FF7303EA02231943018470479E
:101890000A460021018C4DF6FF7319404FF6FF7385
:1018A00003EA023319430184704730B50023012451
:1018B0008C40A3B2048C9C430484048C02FA01F58E
:1018C000ADB22C43048430BD30B5002304248C40D9
:1018D000A3B2048C9C430484048C02FA01F5ADB2DB
:1018E0002C43048430BD70B5034600200024184604
:1018F000183001258D40ACB21D8CA5431D8409B163
:10190000082909D100EB6100056825F07005056024
:101910000568154305600EE00D1FC5F34E0528440C
:10192000056825F4E045056005684FF6FF7606EA90
:1019300002263543056070BD21B1028842F00202E3
:10194000028004E002884FF6FD731A40028070475F
:1019500021B1028842F00402028004E002884FF6BE
:10196000FB731A400280704721B1828842F08002E6
:10197000828004E082884FF67F731A40828070472D
:1019800002884FF6F7731A40028002880A430280E9
:10199000704782884FF68F731A40828082880A438C
:1019A0008280704702894FF6F8731A4002810289DB
:1019B0000A430281704702894FF67F731A40028101
:1019C00002890A430281704781847047818570478C
:1019D000818670470187704781877047A0F8401063
:1019E000704702884FF6FF431A40028002880A437C
:1019F000028070470146888E70470146088F704705
:101A00000146888F70470146B1F840007047014693
:101A1000888C70470146088D704702460020138A63
:101A20000B400BB1012000E000207047CA43028246
:101A3000704730B50246002000230024158A05EACD
:101A40000103958905EA010413B10CB1012000E0FE
:101A5000002030BDCA4302827047000010B5044622
:101A6000FB48844209D101218803FFF79FF8002138
:101A70004FF48040FFF79AF832E0F648844209D1EB
:101A800001214804FFF79FF800214FF40030FFF7D1
:101A90009AF825E0F048844209D101218804FFF733
:101AA00092F800214FF48020FFF78DF818E0EB4802
:101AB000844209D10121C804FFF785F800214FF4C1
:101AC0000020FFF780F80BE0E548844208D10121AF
:101AD0000805FFF778F800214FF48010FFF773F83E
:101AE00010BD2DE9F04786B005460E460024A246FB
:101AF00000BFA1460027B08900B100BF2F462C8A45
:101B00004CF6FF700440F08804432C82AC894EF6FA
:101B1000F3100440B08831890843718908430443B5
:101B2000AC81AC8A4FF6FF400440B0890443AC82DC
:101B300001A8FEF7B4FFC648874202D1DDF810A025
:101B400001E0DDF80CA0A88900F4004040B10AEBE8
:101B5000CA0000EB0A1031684900B0FBF1F807E059
:101B60000AEBCA0000EB0A1031688900B0FBF1F8FB
:101B70006420B8FBF0F004012009642101FB108906
:101B8000A88900F4004040B1322000EBC900B0FB4E
:101B9000F1F000F00700044308E0322000EB0910E8
:101BA0006421B0FBF1F000F00F0004432C8106B07B
:101BB000BDE8F0874FF41651016000218180C1809B
:101BC00001810C21418100218181704710B50246BD
:101BD0000020108A4FF2FF0318400B884C882343E3
:101BE0008C882343CC8823431843108210BD0021E6
:101BF000018041808180C180704721B1828942F497
:101C00000052828104E082894DF6FF731A4082817E
:101C10007047F0B50346002400260025002040F65A
:101C20006A17B94200D100BF1846C1F3421401F04F
:101C30001F06012707FA06F5012C01D10C3004E03C
:101C4000022C01D1103000E014301AB107682F4384
:101C5000076002E00768AF430760F0BD1AB1838AEE
:101C60000B43838202E0838A8B4383827047028A1C
:101C70004FF6F0731A400282028A0A4302827047CA
:101C800082894FF2FF731A40828182890A438281DE
:101C9000704721B1828942F00202828104E0828988
:101CA0004FF6FD731A4082817047028A4FF6DF7348
:101CB0001A400282028A0A430282704721B1028AD4
:101CC00042F48042028204E0028A4BF6FF731A401B
:101CD00002827047C1F308028280704701468888FB
:101CE000C0F308007047818941F00101818170478C
:101CF000028BD2B20283028B42EA01220283704736
:101D0000028B02F47F420283028B0A4302837047F4
:101D100021B1828A42F02002828204E0828A4FF658
:101D2000DF731A408282704721B1828A42F010022A
:101D3000828204E0828A4FF6EF731A4082827047F3
:101D400021B1828A42F00802828204E0828A4FF640
:101D5000F7731A408282704721B1828942F40042AF
:101D6000828103E08289C2F30E028281704721B131
:101D7000828A42F40062828204E0828A4FF2FF7318
:101D80001A4082827047828A4FF6FB731A40828221
:101D9000828A0A438282704721B1828A42F002021B
:101DA000828204E0828A4FF6FD731A408282704775
:101DB00002460020B1F5007F00D100BF13880B4020
:101DC0000BB1012000E00020704701F40072B2F571
:101DD000007F00D100BFCA430280704770B5024641
:101DE000002400230025002040F66A16B14200D1ED
:101DF00000BFC1F3421501F01F03012606FA03F3E9
:101E0000012D02D19689334006E0022D02D1168AB7
:101E1000334001E0968A33400C12012606FA04F49E
:101E20001688344013B10CB1012000E0002070BDD1
:101E300010B50022002340F66A14A14200D100BF71
:101E40000A1201249440A3B2DC43048010BD0000B8
:101E5000003801400044004000480040004C004071
:101E60000050004008B500260025BF4800F037FAB2
:101E700004F0E6F803F0E4FD00F0A1FA0623BBA2AB
:101E80000021084603F0F6FF00F0BAFE0623BAA2CE
:101E90000021084603F0EEFF00F082FC0623B9A201
:101EA0000021084603F0E6FF04F0DEF90623B8A29D
:101EB0000021084603F0DEFFB84800F010FA02E007
:101EC000B64800F00CFA0AF074F90028F8D106239D
:101ED000B3A20021084603F0CDFF002408E0B44A75
:101EE000B449B5480AF02BFBAC4800F0F8F9641C83
:101EF0000A2CF4DB002410E0AD4AAE49AE480AF0EB
:101F00001EFB30B9AA480168304613F0A0FA064615
:101F10006D1CA24800F0E3F9641C0A2CECDB284697
:101F200013F0B6FC07463946304613F0C8FAA34909
:101F3000086002F03EFD03F022F804F07FFB002170
:101F40009E48006813F0A6FD06D106239CA200213E
:101F5000084603F08FFF05E006239DA200210846F6
:101F600003F088FF04F0A1FB04F04EFC00F0EFFE4C
:101F70008A4800F0B4F903F0B9FA884800F0AFF9E4
:101F8000984801889848FFF723FD984801889648AB
:101F9000FFF724FD964801889648FFF719FD9648FB
:101FA00001889448FFF716FD934801889148FFF790
:101FB00013FD02F0FEFC914800F091F902F076F971
:101FC00006238FA20021084603F054FF06F0F0F923
:101FD00002F0D5FF06238CA20021084603F04AFF39
:101FE00000BF8D4800680128FBD006238BA200218A
:101FF000084603F03FFF05F05EFB06F090F906F09F
:1020000025FA0620012300908848027819461020FE
:1020100003F0B6FE05F066FB06200123009084481D
:1020200002780221102003F0ABFE0620012300906D
:102030007E4802781946102003F0A2FE06F0A2F9AD
:102040007B48007810B901207949087006F0CFF973
:1020500013E0524800F043F976480078401C754977
:10206000087008460078282807DD00200870012045
:1020700071490870D520714908806F4800780028A0
:10208000E7D00620042300906C480288032110202A
:1020900003F076FE05F050FB05F047FC06F050F922
:1020A00006F0C3F906200123009060480278194623
:1020B000102003F065FE00206149087010E03748E9
:1020C00000F00DF95B480078401C5A49087008463A
:1020D0000078142804DD0020087001205849087099
:1020E000574800780028EAD05648007856490870CA
:1020F00006F037F900205549087010E0274800F035
:10210000EEF84C480078401C4A49087008460078B0
:10211000142804DD0020087001204C4908704B4849
:1021200000780028EAD0474800784949087004F050
:10213000E5FC05F04AFC7B204049088001203C4931
:1021400008704FF49C704349088006F02FFA05F0A0
:10215000A5FC00BF062001230090344802781946F0
:10216000102003F00DFEF5E740420F004F4C4544B0
:102170005F496E69740000004C45445F496E6974A4
:10218000000000004B45595F496E69740000000073
:102190004949435F496E697420202000A0860100F0
:1021A0004D5055393235305F496E6974000000007A
:1021B0004800002044000020400000204C00002087
:1021C000393235305F496E69744572726F72000042
:1021D000393235305F496E69745375636365737363
:1021E0000000000028000020002C01402A000020F0
:1021F0002C000020003401402E00002020A1070008
:10220000444A5F496E6974005F5F5F74696D375F50
:10221000496E697400000000100124424F4F4F4F77
:102220004F4F4F4F4F4F5F496E697400C9000020F8
:10223000C20000205700002056000020C0000020EF
:1022400055000020C8000020C500002054000020D8
:10225000C4000020C6000020704700BFFEE700BF9A
:10226000FEE700BFFEE700BFFEE77047704770471C
:1022700010B500F03DF810BD30B50146B1F1807FDA
:1022800001D3012030BD21F07F40401E4FF0E022FD
:10229000506150170F22002807DA13071D0E394B23
:1022A00000F00F04241F1D5503E013071C0E364BCE
:1022B0001C5400BF00204FF0E02290610720106105
:1022C0000020DFE710B5314800683149B0FBF1F478
:1022D0002046FFF7D1FF08B100BFFEE710BD01B5F2
:1022E0000099C80000BF0100A0F10100FBD108BDAA
:1022F0002848006820B127480068401E254908602A
:10230000704731B5214800682149B0FBF1F52846F6
:10231000FFF7B2FF002408E000BF4FF0E0200069A3
:1023200000F480300028F8D0641C00988442F3D375
:102330004FF0E020006920F001004FF0E02108613B
:1023400038BD31B5114800684FF47A71B0FBF1F532
:102350002846FFF791FF002408E000BF4FF0E0207F
:10236000006900F480300028F8D0641C0098844292
:10237000F3D34FF0E020006920F001004FF0E0219E
:10238000086138BD18ED00E000E400E00000002026
:1023900040420F005C00002008B54FF4A060FDF73C
:1023A000D3FF25208DF8000001208DF801008DF865
:1023B00002008DF803006846FDF7CBFF08BD00B5AD
:1023C00085B001210420FEF7D7FB01218803FEF729
:1023D000D3FB4FF40070ADF8100018208DF81300F7
:1023E00003208DF8120004A95C48FEF709F94FF4A8
:1023F0008060ADF8100004208DF8130004A9574840
:10240000FEF7FEF84FF4E13000900020ADF8040034
:10241000ADF80600ADF80800ADF80C000C20ADF8E2
:102420000A0069464E48FFF75CFBFFF7B5FF012243
:1024300040F225514A48FFF7ECFB01214848FFF7DD
:10244000DCFB05B000BD70B504460D4629462046AC
:10245000FFF740FC00BF80212046FFF7A9FC0028C1
:10246000F9D070BD2DE9F04107460D46164600240F
:1024700005E0295D3846FFF7E6FF601CC4B2B442B0
:10248000F7DB00BF40213846FFF792FC0028F9D067
:10249000BDE8F08170B506460C46002500BF615DC1
:1024A0003046FFF7D0FF6D1C605D0028F7D100BFFC
:1024B00040213046FFF77CFC0028F9D070BD2DE9A3
:1024C000F04105460C46260AE7B231462846FFF79A
:1024D00001FC00BF80212846FFF76AFC0028F9D0E4
:1024E00039462846FFF7F6FB00BF80212846FFF754
:1024F0005FFC0028F9D0BDE8F08100201949087080
:102500001949184A12788854704770B504460D4628
:10251000E1B21348FFF7DEFB00BF80211048FFF750
:1025200047FC0028F9D0204670BD10B5044600BF16
:1025300020210B48FFF73CFC0028F9D00848FFF7A2
:10254000CDFB10BD10B540F225510548FFF746FC04
:1025500018B10348FFF7C2FBC4B210BD0008014028
:1025600000380140600000204C01002008B54FF405
:10257000A060FDF7E9FE27208DF8000000208DF80F
:1025800001008DF8020001208DF803006846FDF778
:10259000E0FE08BD00B585B001210820FEF7ECFA89
:1025A00001218804FEF7F5FA4FF48060ADF81000C1
:1025B00018208DF8130003208DF8120004A95B4841
:1025C000FEF71EF84FF40060ADF8100004208DF8FF
:1025D000130004A95548FEF713F84FF41640009075
:1025E0000020ADF80400ADF80600ADF80800ADF825
:1025F0000C000C20ADF80A0069464D48FFF771FA4F
:10260000FFF7B4FF012240F225514948FFF701FBD3
:1026100001214748FFF7F1FA05B000BD2DE9F0416F
:10262000002600270A2540F225514148FFF7D6FB36
:10263000002878D03E48FFF751FBC4B23D480078EF
:1026400008286BD2DFE800F004101C22282E343A50
:10265000AA2C05D13848047001203649087002E0E0
:102660000020344908705DE0552C05D13248447093
:1026700002203049087002E000202E49087051E025
:102680002D48847003202B4908704BE02A48C47001
:1026900004202849087045E0274804710520254991
:1026A00008703FE02448447106202249087039E050
:1026B0002148847107201F49087033E01E480078C4
:1026C0001D49497808441C49897808441A49C97841
:1026D00008441949097908441749497908441649B1
:1026E000897908441449C8710846C079A0420FD1BD
:1026F0000846807840B286B20846C07840B287B2B9
:1027000008464079897900EB012085B20B480580A5
:1027100000200849087005E005E0FFE700200549B2
:10272000087000BF00BFBDE8F0810000000C014050
:102730000048004078000020790000205800002068
:1027400008B54FF4A060FDF7FFFD02208DF80100F1
:1027500003208DF8020001208DF8030009208DF878
:1027600000006846FDF7F5FD03208DF802000A2001
:102770008DF800006846FDF7ECFD03208DF802009F
:1027800017208DF800006846FDF7E3FD03208DF863
:10279000020028208DF800006846FDF7DAFD08BD2C
:1027A0000EB5FFF7CDFF01210520FEF7E5F9012168
:1027B0002120FEF7E1F901214120FEF7DDF9012199
:1027C0008120FEF7D9F94FF48050ADF80800482079
:1027D0008DF80B0003208DF80A0002A9FD48FDF7D3
:1027E0000FFF41F21800ADF8080002A9FA48FDF702
:1027F00007FF8020ADF8080002A9F848FDF700FFA8
:102800004FF43040ADF8080002A9F548FDF7F8FE96
:102810000820009000208DF804000C208DF80500A1
:1028200001208DF806006846FDF70AFE1020009092
:1028300000208DF804000C208DF8050001208DF893
:1028400006006846FDF7FCFD8020009000208DF812
:1028500004000C208DF8050001208DF80600684664
:10286000FDF7EEFD4FF48050009000208DF804003D
:102870000C208DF8050001208DF806006846FDF754
:10288000DFFD4FF40050009000208DF804000C2074
:102890008DF8050001208DF806006846FDF7D0FD93
:1028A0004FF40040009000208DF804000C208DF8BB
:1028B000050001208DF806006846FDF7C1FD0C21DA
:1028C0000020FDF7B3FF03210846FDF7AFFF042109
:1028D0000320FDF7ABFF0C210320FDF7A7FF072125
:1028E0000420FDF7A3FF0C210520FDF79FFF0D211C
:1028F0000520FDF79BFF0F210520FDF797FF08201E
:10290000FDF715FE1020FDF712FE8020FDF70FFEEB
:102910004FF48050FDF70BFE4FF40050FDF707FE1B
:102920004FF40040FDF703FE092000F05DF90A2096
:1029300000F05AF9172000F057F9282000F054F958
:102940000EBD10B50820FDF7E1FD012822D1A248F7
:102950000830006800F00800E0B942F21070FFF79C
:10296000BEFC9D480830006800F0080090B900BF28
:1029700099480830006800F008000028F8D097480F
:102980000C30006880F4807094490C31086001209C
:10299000944948738020FDF7CAFD10BD10B5102082
:1029A000FDF7B4FD012822D18B480830006800F003
:1029B0001000E0B942F21070FFF791FC8648083031
:1029C000006800F0100090B900BF8348083000682C
:1029D00000F010000028F8D080480C30006880F427
:1029E00080707E490C31086001207E494873802048
:1029F000FDF79DFD10BD10B58020FDF787FD012876
:102A00001FD176480830006800F08000C8B942F253
:102A10001070FFF764FC71480830006800F0800017
:102A200078B900BF6D480830006800F080000028C9
:102A3000F8D06A480C30006880F4807067490C3127
:102A400008608020FDF773FD10BD10B54FF4805075
:102A5000FDF75CFD012864D15E480830006800F491
:102A600080500028F7D142F21070FFF738FC594827
:102A70000830006800F4805078B900BF554808302D
:102A8000006800F480500028F8D054480C300068EA
:102A900080F4807051490C3108604F48083000685C
:102AA00000F48050F0BB42F21070FFF718FC4A4867
:102AB0000830006800F4805078B900BF46480830FC
:102AC000006800F480500028F8D044480C300068BA
:102AD00080F4007041490C310860414808300068BA
:102AE00000F48050C8B942F21070FFF7F8FB3C4880
:102AF0000830006800F4805078B900BF38480830CA
:102B0000006800F480500028F8D034480C30006889
:102B100080F4806031490C3108604FF48050FDF73B
:102B200006FD55E0FFE74FF40050FDF7EFFC0128EC
:102B300024D12B480830006800F40050C8B942F294
:102B40001070FFF7CCFB26480830006800F40050F6
:102B500078B900BF22480830006800F4005000280F
:102B6000F8D01E480C30006880F480701B490C318E
:102B700008604FF40050FDF7DAFC29E04FF4004004
:102B8000FDF7C4FC012823D115480830006800F483
:102B90000040C8B942F21070FFF7A1FB104808309E
:102BA000006800F4004078B900BF0D4808300068A4
:102BB00000F400400028F8D008480C30006880F489
:102BC000807006490C3108604FF40040FDF7AFFCFF
:102BD00010BD000000080140001401400018014031
:102BE000001C01404C02002000F01F020121914016
:102BF0004209920002F1E022C2F800117047000081
:102C000008B501214020FDF7B7FF4FF4E060ADF8B3
:102C1000000010208DF8030003208DF802006946A3
:102C20000948FDF7EDFC4FF480710748FDF795FD6D
:102C30004FF400710448FDF790FD4FF480610248A5
:102C4000FDF78BFD08BD00000018014008B501210B
:102C50000420FDF791FF4FF48070ADF800001820BC
:102C60008DF8030003208DF802006946FE48FDF749
:102C7000C7FC4FF40060ADF800006946FA48FDF764
:102C8000BFFC08BD00B587B00121C802FDF774FF85
:102C900004A8FEF7D5FB42F20F70ADF814008F20A8
:102CA000ADF810000020ADF81600ADF812008DF858
:102CB000180004A9ED48FEF797F86020ADF8000071
:102CC0000120ADF802000020ADF8040040F22E40D3
:102CD000ADF806000020ADF808004FF48070ADF8A4
:102CE0000C000020ADF80E006946E048FEF7B9F888
:102CF0000821DE48FEF704FD40F27440ADF80600FE
:102D00006946DA48FEF787F90821D848FEF717FD2B
:102D10000121D648FEF7D0FB0121D448FEF7C0FBC5
:102D200007B000BD08B501221146D048FEF7D3FB1D
:102D300019208DF8000003208DF801008DF80200A5
:102D400001208DF803006846FDF703FB08BD10B5B0
:102D5000FFF77CFFFFF796FF10BD10B5C448C078A1
:102D600001281AD1C34800880A30C24908800846A1
:102D7000008840F2A461884202DB0846BD49088011
:102D8000BC480188B948FEF723FEBA480188BAA0BA
:102D900013F080F80020B649C870B54800790128C2
:102DA00019D1B44800880A38B2490880084600881A
:102DB000B0F51B7F02DC4FF41B700880AD48018822
:102DC000AA48FEF705FEAB480188ABA013F062F8F5
:102DD0000020A7490871A648407901281AD1AA48BD
:102DE00000880A30A84908800846008840F2EC4173
:102DF000884202DB0846A4490880A34801889B4812
:102E0000FEF7ECFDA0480188A0A013F043F80020D5
:102E10009749487196488079012817D19A480088C7
:102E20000A3899490880084600888C2801DC8C20E3
:102E30000880954801888D48FEF7D0FD92480188AA
:102E400092A013F027F800208949887110BD38B589
:102E5000062003460090874802880521002002F0E2
:102E60008FFF062003460090874802880521302006
:102E700002F086FF0620034600908848028806215B
:102E8000002002F07DFF062003460090844802885F
:102E90000621302002F074FF00218248006812F001
:102EA000F9FD0DD2062380A20721402002F0E2FFA7
:102EB0007C4801687E4812F0D0FA7A49086005E043
:102EC00006237CA20721402002F0D4FF7B497548ED
:102ED000006812F0C2FA054612F028FD04460620EA
:102EE0000423224607210090602002F049FF38BDEC
:102EF00010B500244FF48C705E49088012E05D48E4
:102F000001886F48FEF766FDFFF7A1FF21465CA030
:102F100012F0C0FF6B48FFF7E2F9564800880A300C
:102F20005449088053480088B0F5FA7FE7DB12E087
:102F3000504801886248FEF74DFDFFF788FF2146A3
:102F40004FA012F0A7FF5F48FFF7C9F94948008872
:102F500014384849088047480088B0F58C7FE7DC82
:102F600010BD10B54FF4F070424908800CE04148A4
:102F700001883E48FEF72CFD5348FFF7B0F93D4865
:102F8000008814383B4908803A480088B0F5B27F81
:102F9000EDDA40F26310374908800846018833486B
:102FA000FEF716FD40F22A303C4908800CE03B4811
:102FB00001884348FEF70CFD4348FFF790F9374876
:102FC00000881438354908803448008840F25D2173
:102FD0008842ECDC084631490880084601883848B8
:102FE000FEF7F6FC4FF42F70274908800CE02648C6
:102FF00001881E48FEF7F2FC3348FFF770F92248BB
:1030000000881438204908801F480088B0F5CB7F1D
:10301000EDDA40F295101C490880084601881348F3
:10302000FEF7DCFC40F2DB101D4908800CE01C4878
:1030300001882348FEF7CEFC2448FFF750F91848D2
:10304000008814381649088015480088B0F5BE7FFE
:10305000EDDC1E48FFF743F94FF4BE7010490880BD
:1030600008460188164833E000080140002C014062
:103070004C0200202800002074696D316368313DE6
:1030800025640D0A000000002A00002074696D31DB
:103090006368343D25640D0A000000002C00002008
:1030A0002E000020500000205941573A2D0000000A
:1030B000000080BF5941573A200000000000204125
:1030C0000034014020A10700400D0300A08601004C
:1030D000FEF780FCFE480188FE48FEF77BFC40F2CC
:1030E0009510FD4908800CE0FB480188FB48FEF77D
:1030F00075FCFB48FFF7F3F8F74800881430F649F1
:103100000880F5480088B0F5E17FEDDB4FF4E17011
:10311000F149088008460188F048FEF75FFC40F25C
:103120006310F04908800CE0EE480188EB48FEF798
:103130004FFCEB48FFF7D3F8EA4800881430E94920
:103140000880E8480088B0F5257FEDDB4FF4257056
:10315000E449088008460188E048FEF739FC10BDC4
:1031600010B540F25D20E04908800CE0DE4801889F
:10317000D848FEF72DFCDA48FFF7B1F8DA480088A6
:103180001438D9490880D848008840F22121884263
:10319000ECDC0846D449088008460188CD48FEF793
:1031A00017FC4FF4E170CC4908800CE0CA48018854
:1031B000CA48FEF713FCCA48FFF791F8C6480088D2
:1031C0001438C5490880C4480088B0F5B47FEDDCE8
:1031D0004FF4B470C049088008460188BF48FEF724
:1031E000FDFB4FF4BE70BA4908800CE0B848018876
:1031F000B848FEF7EFFBBA48FFF771F8B44800880B
:103200001430B3490880B2480088B0F5ED7FEDDD99
:10321000B348FFF764F840F2DB10AD490880084678
:103220000188AC48FEF7D6FB10BD10B54FF4B47062
:10323000A94908800CE0A8480188A848FEF7CEFB01
:10324000A748FFF74CF8A44800881430A24908802A
:10325000A1480088B0F5E17FEDDB4FF4E1709E49B5
:103260000880084601889D48FEF7B8FB40F22120FF
:103270009D4908800CE09C4801889648FEF7A8FB11
:103280009748FFF72CF89848008814309649088032
:103290009548008840F22A318842ECDB0846924982
:1032A0000880084601888B48FEF792FB4FF4257092
:1032B0008C4908800CE08B4801888848FEF788FB21
:1032C0008748FFF70CF8874800881438854908803C
:1032D00084480088B0F5F07FEDDC4FF4F070814950
:1032E0000880084601887D48FEF772FB4FF4E170C4
:1032F000794908800CE0784801887848FEF76EFB31
:103300007748FEF7ECFF7448008814307249088053
:1033100071480088B0F52F7FEDDB4FF42F706E49B8
:103320000880084601886D48FEF758FB10BD10B5AF
:103330004FF4F0706B4908800CE06A4801886748D8
:10334000FEF746FB6948FEF7CAFF66480088143856
:103350006449088063480088B0F5997FEDDA40F24F
:10336000311060490880084601885C48FEF730FB50
:1033700040F22A305C4908800CE05B4801885548DF
:10338000FEF726FB5948FEF7AAFF57480088143875
:10339000554908805448008840F285218842ECDC79
:1033A000084651490880084601884A48FEF710FB44
:1033B0004FF42F70484908800CE04748018847487F
:1033C000FEF70CFB4948FEF78AFF43480088143893
:1033D0004149088040480088B0F5D07FEDDA40F2DE
:1033E0009F103D490880084601883C48FEF7F6FAE0
:1033F00040F2DB10364908800CE03548018835483A
:10340000FEF7E8FA3648FEF76AFF314800881438BC
:103410002F4908802E480088B0F5BE7FEDDC30488B
:10342000FEF75DFF4FF4BE70294908800846018809
:103430002848FEF7CFFA264801882648FEF7CAFA40
:1034400010BD10B540F29F10234908800CE02248BF
:1034500001882248FEF7C2FA2148FEF740FF1E48C5
:10346000008814301C4908801B480088B0F5FA7F9A
:10347000EDDB4FF4F07018490880084601881748C2
:10348000FEF7ACFA40F23110164908800CE01548FE
:1034900001881248FEF79CFA1148FEF720FF1148F8
:1034A000008814300F4908800E480088B0F5257F49
:1034B000EDDB4FF425700B4908800846018807486A
:1034C000FEF786FA40F28520074908801DE00000DB
:1034D0002E000020003401402A000020002C014072
:1034E000A0860100280000202C000020400D0300D1
:1034F000FE480188FE48FEF76BFAFE48FEF7EFFE35
:10350000FA4800881438F9490880F848008840F2E1
:1035100076218842ECDC0846F44908800846018898
:10352000F348FEF755FA4FF4F070F34908800CE0C9
:10353000F1480188F148FEF751FAEE48FEF7CFFE58
:10354000ED4800881438EC490880EB480088B0F555
:10355000C37FEDDC4FF4C370E7490880084601885B
:10356000E648FEF73BFA4FF4BE70E54908800CE0F0
:10357000E3480188DE48FEF72DFADE48FEF7AFFE8D
:10358000DF4800881430DE490880DD480088B0F547
:10359000ED7FEDDDD748FEF7A2FE40F2DB10D84903
:1035A000088008460188D248FEF714FA10BD10B50D
:1035B0004FF4C370D04908800CE0CF480188CF4851
:1035C000FEF70CFACB48FEF78AFECB480088143091
:1035D000C9490880C8480088B0F5E17FEDDB4FF4A9
:1035E000E170C549088008460188C448FEF7F6F92D
:1035F00040F27620BD4908800CE0BC480188BC48F8
:10360000FEF7E6F9BB48FEF76AFEB84800881430BA
:10361000B6490880B548008840F22A318842ECDB80
:103620000846B249088008460188B148FEF7D0F93B
:103630004FF42570B34908800CE0B2480188AF48C8
:10364000FEF7C6F9AB48FEF74AFEAE4800881438CC
:10365000AC490880AB480088B0F5F07FEDDC4FF452
:10366000F070A849088008460188A448FEF7B0F920
:103670004FF4E170A04908800CE09F4801889F4802
:10368000FEF7ACF99B48FEF72AFE9B4800881430F1
:103690009949088098480088B0F52F7FEDDB4FF4FA
:1036A0002F7095490880084601889448FEF796F9DE
:1036B00010BD10B506E031219348FEF7C4FE8D48D9
:1036C000FEF70DFE9148007B0128F4D100208F49C0
:1036D000087310BD10B506E031218B48FEF7B3FE2C
:1036E0008448FEF7FCFD8948007B0128F4D10020C6
:1036F0008649087310BD86480078022807D185489E
:103700000078032803D101208349087038E08048FD
:103710000078032806D17F480078022802D17E492C
:1037200008702DE07A480078012806D179480078A1
:10373000032802D17849087022E0754800780328F0
:1037400007D174480078012803D104207249087019
:1037500016E06F480078012807D16E4800780228EB
:1037600003D105206C4908700AE0694800780228F6
:1037700006D168480078012802D106206649087001
:10378000704710B506E035215F48FEF75CFE5948EA
:10379000FEF7A5FD5D48007B0128F4D100205B49C0
:1037A000087310BD10B54FF4F070564908800CE056
:1037B000544801885148FEF70BF95848FEF78FFD31
:1037C0005048008814384F4908804E480088B0F5AA
:1037D000997FEDDA40F231104A49088008460188A5
:1037E0004648FEF7F5F840F22A30404908800CE0E0
:1037F0003E4801883E48FEF7EBF84848FEF76FFD6B
:103800003A4800881438394908803848008840F21E
:10381000B2218842ECDC0846344908800846018819
:103820003348FEF7D5F84FF42F70334908800CE089
:10383000314801883148FEF7D1F83848FEF74FFD8E
:103840002D48008814382C4908802B480088B0F592
:10385000DF7FEDDA40F2BD10274908800846018875
:103860002648FEF7BBF840F2BD10234908800CE063
:10387000214801882148FEF7B1F82848FEF72FFDBE
:103880001D48008814301C4908801B480088B0F58A
:10389000F77FEDDD40F2EF101749088008460188F8
:1038A0001648FEF79BF810BD10B540F231101549CF
:1038B00008800CE0134801881048FEF789F8174883
:1038C000FEF70DFD0F48008814300E4908800D48A2
:1038D0000088B0F5B17FEDDD40F263100949088042
:1038E000084601880548FEF773F819E02C0000200F
:1038F00000340140A08601002A000020002C014075
:103900002E00002028000020005000404C02002023
:10391000C4000020C5000020C2000020400D0300AC
:1039200040F2B220F84908800CE0F7480188F748D7
:10393000FEF74EF8F648FEF7D2FCF348008814383C
:10394000F1490880F048008840F299218842ECDC77
:103950000846ED49088008460188EC48FEF738F82B
:1039600040F2EF10EB4908800CE0EA480188EA4891
:10397000FEF734F8E648FEF7B2FCE6480088143853
:10398000E4490880E3480088B0F5D77FEDDC4FF4C8
:10399000D770E049088008460188DF48FEF71EF826
:1039A00010BD10B54FF4F070DC4908800CE0DB4826
:1039B0000188D948FEF70CF8D548FEF790FCD748A7
:1039C00000881438D5490880D4480088B0F59E7F17
:1039D000EDDA40F23B10D149088008460188CE4814
:1039E000FDF7F6FF40F22A30C74908800CE0C648D0
:1039F0000188C648FDF7ECFFC548FEF770FCC248D9
:103A000000881438C0490880BF480088B0F5437F5B
:103A1000EDDC4FF44370BC49088008460188BB4880
:103A2000FDF7D6FF4FF42F70BA4908800CE0B94873
:103A30000188B948FDF7D2FFB548FEF750FCB548FC
:103A400000881438B3490880B2480088B0F51F7F59
:103A5000EDDA40F27B20AF49088008460188AE4885
:103A6000FDF7BCFF10BD10B54FF4D770A949088011
:103A70000CE0A8480188A848FDF7B0FFA848FEF769
:103A80002EFCA44800881430A2490880A148008870
:103A9000B0F52F7FEDDB4FF42F709E49088008466C
:103AA00001889D48FDF79AFF40F2992096490880C9
:103AB0000CE0954801889548FDF78AFF9848FEF785
:103AC0000EFC9148008814308F4908808E48008889
:103AD00040F22A318842ECDB08468B4908800846D0
:103AE00001888A48FDF774FF40F263108B49088013
:103AF0000CE08A4801888848FDF76AFF8848FEF78D
:103B0000EEFB86480088143084490880834800888A
:103B1000B0F5F07FEDDB4FF4F07080490880084687
:103B200001887D48FDF754FF10BD10B540F27B20A1
:103B3000784908800CE0774801887748FDF74EFF08
:103B40007348FEF7CCFB7348008814307149088035
:103B500070480088B0F52F7FEDDB4FF42F706D4972
:103B60000880084601886C48FDF738FF4FF4437021
:103B7000654908800CE0644801886448FDF728FF27
:103B80006348FEF7ACFB6048008814305E4908804B
:103B90005D48008840F22A318842ECDB08465A49E9
:103BA0000880084601885948FDF712FF40F23B1093
:103BB0005A4908800CE0594801885748FDF708FF2A
:103BC0005348FEF78CFB5548008814305349088051
:103BD00052480088B0F5F07FEDDB4FF4F0704F49AC
:103BE0000880084601884C48FDF7F2FE10BD70B50C
:103BF00004460D46012D33D148480088A04217DA0B
:103C00000DE0464801884448FDF7E2FE41F6583091
:103C1000FEF765FB414800881430404908803F4862
:103C20000088A042EDDDA1B23B48FDF7D1FEBEE029
:103C30000DE03A4801883848FDF7CAFE41F6583091
:103C4000FEF74DFB35480088143834490880334866
:103C50000088A042EDDAA1B22F48FDF7B9FEA6E038
:103C6000022D33D12B480088A04217DA0DE02948F5
:103C700001882948FDF7B2FE4AF6C870FEF72FFB0F
:103C80002448008814302349088022480088A04234
:103C9000EDDDA1B22048FDF7A1FE88E00DE01D4852
:103CA00001881D48FDF79AFE4AF6C870FEF717FB1B
:103CB0001848008814381749088016480088A04220
:103CC000EDDAA1B21448FDF789FE70E0032D41D171
:103CD0000D480088A04225DA0DE00B4801880B480A
:103CE000FDF776FE4EF66020FEF7F9FA06480088EA
:103CF000401D0549088004480088A042EDDDA1B2BE
:103D00000248FDF765FE52E02C000020003401401F
:103D1000400D03002A000020002C01402800002054
:103D2000A08601000DE0224801882248FDF750FEE0
:103D30004EF66020FEF7D3FA1D480088401F1C494C
:103D400008801B480088A042EDDAA1B21948FDF7AF
:103D50003FFE2CE0042D2AD117480088A04213DA38
:103D60000DE0154801881348FDF734FE4EF660203B
:103D7000FEF7B5FA104800880A300F4908800E484F
:103D80000088A042EDDD12E00DE00B4801880948F3
:103D9000FDF720FE4EF66020FEF7A1FA06480088E7
:103DA0000A380549088004480088A042EDDA70BD51
:103DB0002C000020003401402E00002008B54FF4F4
:103DC000E060FCF7C1FA1C208DF8000000208DF89F
:103DD000010003208DF8020001208DF803006846E1
:103DE000FCF7B7FA08BD08B501210420FCF7C4FEB2
:103DF0000121A548FCF7D5FC04208DF80300694695
:103E0000A248FCF7FDFB0420ADF8000069469F487E
:103E1000FCF7F6FB0820ADF8000069469B48FCF76C
:103E2000EFFB01210820FCF7A7FE4FF44040ADF85E
:103E3000000010208DF8030003208DF80200694671
:103E40009348FCF7DDFB4FF480419248FCF787FC78
:103E50004FF400418F48FCF782FC08BD00B587B0E5
:103E600001210846FCF795FE4FF6FF70ADF81400EF
:103E70004720ADF810000020ADF81600ADF8120094
:103E80008DF8180004A94FF08040FCF7ADFF082022
:103E9000ADF804000020ADF806000120ADF80800E0
:103EA0000020ADF80A00ADF80C0001A94FF08040E9
:103EB000FDF72DFA0C20ADF8040001A94FF0804069
:103EC000FDF725FA09218807FDF7B0FD0122092138
:103ED0008807FDF700FB11218807FDF7A7FD0122E8
:103EE00011218807FDF7F7FA01218807FDF7D8FAB5
:103EF00007B000BD10B5FFF776FFFFF75FFFFFF7D4
:103F0000ADFF10BD10B501218807FDF792FD68B126
:103F100061488088401C6049888060488088401CD7
:103F20005E49888001218807FDF794FD0821C806B5
:103F3000FDF77FFD38B35848407880B900214FF035
:103F40008040FDF741FD00205349888048800221D0
:103F50004807FDF783FC01204F4948700FE04FF000
:103F60008040FDF74DFD4C49488000214FF08040D6
:103F7000FDF774FC002048494870012008700821B2
:103F8000C806FDF767FD10218806FDF752FD38B31E
:103F90004248407880B900214FF08040FDF714FD81
:103FA00000203E498880488002214807FDF770FCC8
:103FB00001203A4948700FE04FF08040FDF723FDA3
:103FC0003649488000214FF08040FDF761FC002019
:103FD000324948700120087010218806FDF73AFD2B
:103FE00010BD10B52C480078012822D12A484088FD
:103FF000401C2949898800EB014027498860084610
:10400000806827490968B0FBF1F201FB12004FF408
:10401000AA71484340084FF47A71B0FBF1F01E4991
:104020008881084681891FA011F034FF00201A49B9
:10403000087010BD10B519480078012822D1174822
:104040004088401C1549898800EB0140134988606D
:104050000846806812490968B0FBF1F201FB1200C2
:104060004FF4AA71484340084FF47A71B0FBF1F065
:104070000A4988810846818910A011F00BFF0020B1
:104080000649087010BD000000011800000801403A
:1040900000180140000C0140700200208002002046
:1040A000840000200D0AB2E2C1BFBEE0C0EB33A322
:1040B000BA2564206D6D0D0A000000000D0AB2E201
:1040C000C1BFBEE0C0EB34A3BA2564206D6D0D0AFC
:1040D0000000000008B501210420FCF74DFD402040
:1040E000ADF8000004208DF8030003208DF80200D5
:1040F00069466748FCF784FA8020ADF800006946FD
:104100006348FCF77DFA01210820FCF735FD01200A
:10411000ADF8000069465F48FCF772FA0220ADF87E
:10412000000069465B48FCF76BFA08BD08B54FF420
:10413000A060FCF709F91D208DF8000001208DF822
:10414000010002208DF8020001208DF8030068466E
:10415000FCF7FFF808BD00B587B001210220FCF78D
:1041600018FD4FF6FF70ADF814004720ADF81000B1
:104170000020ADF81600ADF8120004A94648FCF77F
:1041800033FE0020ADF80400ADF806000120ADF8C4
:1041900008000020ADF80A00ADF80C0001A93E4867
:1041A000FDF7B5F80420ADF8040001A93A48FDF781
:1041B000AEF80820ADF8040001A93748FDF7A7F8CC
:1041C0000C20ADF8040001A93348FDF7A0F8FFF773
:1041D000ADFF012202213048FDF77DF901220421C3
:1041E0002D48FDF778F9012208212B48FDF773F9D6
:1041F000012210212848FDF76EF901212648FDF71C
:104200004FF907B000BD10B5FFF764FFFFF7A3FF3C
:1042100010BD10B502212048FDF70BFC012808D184
:1042200002211D48FDF716FC1C480068401C1B4974
:10423000086004211848FDF7FCFB012808D104217F
:104240001548FDF707FC16480068401C1449086033
:1042500008211148FDF7EDFB012808D108210E487F
:10426000FDF7F8FB0F480068401C0E49086010215C
:104270000948FDF7DEFB012808D110210648FDF7AB
:10428000E9FB09480068401C0749086010BD0000B0
:1042900000080140000C014000040040880000209C
:1042A0008C00002090000020940000200020FE4997
:1042B00009688862FC49096808630021FA4A1268A3
:1042C000116251624FF08040F74A12689160D060ED
:1042D0004FF06631F548F44A126811615061494265
:1042E000F348F14A12689161D0614FF41670EE49BB
:1042F000096808600020EC4909684863EA490968D0
:104300008863E9490968C862E74909684860E9497A
:1043100009688862E749096808630021E54A12686C
:10432000116251624FF08041E24A12689060D160A0
:104330004FF06630DD49DF4A126810615161414239
:10434000DB48DC4A12689161D0614FF41670D9499C
:10435000096808600020D74909684863D549096899
:104360008863D4490968C862D24909684860D2495B
:1043700009688862D049096808630021CE4A12683A
:10438000116251624FF08041CB4A12689060D16057
:104390004FF06631C548C84A126811615061484201
:1043A000C349C54A12689061D1614FF41670C24981
:1043B000096808600020C04909684863BE49096867
:1043C0008863BD490968C862BB4909684860BB4940
:1043D00009688862B94909680863B84A12681062B6
:1043E000506200214FF08040B44A12689160D06062
:1043F0004FF06631AD48B14A1268116150614942CF
:10440000AB48AE4A12689161D0614FF41670AB4967
:10441000096808600020A94909684863A749096834
:104420008863A6490968C862A4490968486070475A
:1044300070B505460C46012C03D12946A048FDF76E
:10444000C7FA022C03D129469D48FDF7C3FA032C75
:1044500003D129469A48FDF7BFFA042C03D1294617
:104460009748FDF7BBFA70BD2DE9F04F89B00446BF
:1044700089462168A1EB090011F02EFA20626162E1
:10448000606811F029FA0546276A636A3A4611F016
:1044900060F8824611F07FFA6060606840F2145163
:1044A000884201DB084660606068002801DC00206B
:1044B0006060A06A11F010FA0746256A636A2A460E
:1044C00011F0EBF88246A569E3692A4611F0E8F895
:1044D000CDE90401606811F0FFF9074625696369B9
:1044E0002A4611F0DDF882468B46256A636AA76882
:1044F000E1682A46384611F0D3F852465B46CDE9CA
:10450000000111F026F8CDE90201DDE9042311F0E4
:1045100020F8CDE9060111F03EFAA063226A616A33
:10452000104611F038FAA062A06BC82801DDC8203F
:10453000A063A06BC82801DAC820A063A16B88B271
:104540000121FFF775FFA16B88B20421FFF770FF0F
:1045500009B0BDE8F08F2DE9F04F89B004468946D7
:104560002168A1EB090011F0B7F92062616260686F
:1045700011F0B2F90546276A636A3A4610F0E9FF7E
:10458000824611F008FA6060606840F21451884277
:1045900001DB084660606068002801DC0020606084
:1045A000A06A11F099F90746256A636A2A4611F054
:1045B00074F88246A569E3692A4611F071F8CDE9DD
:1045C0000401606811F088F90746256963692A4685
:1045D00011F066F882468B46256A636AA768E1682F
:1045E0002A46384611F05CF852465B46CDE9000198
:1045F00010F0AFFFCDE90201DDE9042310F0A9FFBF
:10460000CDE9060111F0C7F9A063226A616A10467C
:1046100011F0C1F9A062A06BC82801DDC820A06319
:10462000A06BC82801DAC820A063A16B88B2022160
:10463000FFF7FEFEA16B88B20321FFF7F9FE09B078
:10464000BDE8F08F2DE9F04F89B004468946216816
:10465000A1EB090011F040F920626162606811F07D
:104660003BF90546276A636A3A4610F072FF8246B4
:1046700011F091F96060606840F21451884201DBEA
:10468000084660606068002801DC00206060A06A65
:1046900011F022F90746256A636A2A4610F0FDFFE9
:1046A0008246A569E3690DE09C0000206666E63F4E
:1046B0009999B93FA0000020A4000020A800002084
:1046C000000800402A4610F0EBFFCDE904016068C5
:1046D00011F002F90746256963692A4610F0E0FFE8
:1046E00082468B46256A636AA768E1682A4638468F
:1046F00010F0D6FF52465B46CDE9000110F029FFCD
:10470000CDE90201DDE9042310F023FFCDE9060124
:1047100011F041F9A063226A616A104611F03BF979
:10472000A062A06BB0F52F7F02DD4FF42F70A06365
:10473000A06B002801DA0020A063A16B88B20321DE
:10474000FFF776FE09B0BDE8F08F2DE9F04F89B094
:10475000044689462168A1EB090011F0BDF82062EA
:104760006162606811F0B8F80546276A636A3A46E4
:1047700010F0EFFE824611F00EF96060606840F2C2
:104780001451884201DB084660606068002801DC43
:1047900000206060A06A11F09FF80746256A636AEE
:1047A0002A4610F07AFF8246A569E3692A4610F08E
:1047B00077FFCDE90401606811F08EF8074625699E
:1047C00063692A4610F06CFF82468B46256A636A4D
:1047D000A768E1682A46384610F062FF52465B46F9
:1047E000CDE9000110F0B5FECDE90201DDE90423B9
:1047F00010F0AFFECDE9060111F0CDF8A063226AFA
:10480000616A104611F0C7F8A062A06BB0F52F7F67
:1048100002DD4FF42F70A063A06B002801DA0020A6
:10482000A063A16B88B20421FFF702FE09B0BDE8C6
:10483000F08F08B501221146FE48FCF74CFE1E2001
:104840008DF8000000208DF8010003208DF8020093
:1048500001208DF803006846FBF77BFD08BD00B51D
:1048600089B001210420FCF794F901210920FCF70B
:1048700083F94FF47070ADF8200018208DF82300F4
:1048800003208DF8220008A9EB48FBF7B9FE0121AF
:104890000802FCF771F901212020FCF76DF94FF4B3
:1048A000F040ADF8200010208DF8230003208DF893
:1048B000220008A9E148FBF7A3FE4FF47060ADF8B1
:1048C000200008A9DE48FBF79BFE40F2E730ADF878
:1048D00018000320ADF814000020ADF81A00ADF860
:1048E000160005A9D348FCF77FFA6020ADF8040054
:1048F0000120ADF806000020ADF80C0001A9CD485C
:10490000FCF7AFFA0821CB48FCF7FAFE01A9C94829
:10491000FCF7E9FA0821C748FCF7FBFE01A9C548E6
:10492000FCF72EFB0821C348FCF700FF01A9C14892
:10493000FCF771FB0821BF48FCF701FF0121BD48CE
:10494000FCF7AEFE0121BB48FDF702F80121B94892
:10495000FDF780F801221146B648FCF7BCFD0121A5
:10496000B448FCF79DFD4FF4FA71B248FDF730F8FA
:104970004FF4FA71AF48FDF72DF84FF4FA71AD48D6
:10498000FDF72AF84FF4FA71AA48FDF727F800213D
:10499000A848FDF71DF80021A648FDF71BF80021E7
:1049A000A448FDF719F80021A248FDF717F809B04F
:1049B00000BD10B5FFF753FF10BD10B50121002059
:1049C000FFF736FD02210020FFF732FD0321002012
:1049D000FFF72EFD04210020FFF72AFD10BD03463E
:1049E000934201DB104670478B4201DC0846FAE730
:1049F0001846F8E72DE9F04704469248006810F0A1
:104A0000E9FF20626162256A616A00228E4B2846B6
:104A100011F00CF81DD200208C4908600120091DFE
:104A20000860276A636A3A460020894910F038FE18
:104A30008146276A636A3A4610F032FE054610F056
:104A4000AAFFA063A06B82220021FFF7C8FFA0632A
:104A500026E0256A616A00227E4B284610F0CEFFD0
:104A60001CD20120794908600020091D0860276ACE
:104A7000636A3A46764910F013FE0546276A636A70
:104A80003A4610F00DFE814610F085FFA063A06B42
:104A900082220021FFF7A3FFA06301E00020A063B2
:104AA000A06B81B26348FCF799FFBDE8F0872DE960
:104AB000F04704466348006810F08CFF2062616292
:104AC000256A616A0022604B284610F0AFFF1CD2B5
:104AD0000120614908600020091D0860276A636A97
:104AE0003A465B4910F0DCFD8146276A636A3A4624
:104AF00010F0D6FD054610F04EFFA063A06B5022CB
:104B00000021FFF76CFFA06327E0256A616A00229D
:104B1000504B284610F072FF1DD200204E4908600D
:104B20000120091D0860276A636A3A460020484947
:104B300010F0B6FD0546276A636A3A4610F0B0FDEC
:104B4000814610F028FFA063A06B50220021FFF7E0
:104B500046FFA06301E00020A063A06B81B235484E
:104B6000FCF738FFBDE8F08710B501203A4908315D
:104B7000086000203949C1F8B80134490839086093
:104B800001203749C1F8A4013648008881B229487C
:104B9000FCF71EFF3348008881B22648FCF71CFF53
:104BA0003148FFF784FF3148FFF724FF10BD10B5EF
:104BB000002029490831086001202849C1F8B801BE
:104BC00022490839086000202549C1F8A401254878
:104BD000008881B21748FCF7FBFE2248008881B2AA
:104BE0001448FCF7F9FE2048FFF761FF1F48FFF764
:104BF00001FF10BD2DE9F04704461248006810F08F
:104C0000E9FE20626162256A616A00220E4B284635
:104C100010F00CFF3DD200200C490839086001203B
:104C2000091D0860276A636A3A460020084910F0A7
:104C300037FD1DE000080040000C0140002001404D
:104C400000140140500000200000F03FA8812242E3
:104C5000000059400000F0BFAC0124420000244293
:104C60000080224298000020D00200205003002043
:104C70008146276A636A3A4610F012FD054610F035
:104C80008AFEA063A06B50220021FFF7A8FEA0635C
:104C900026E0256A616A0022914B284610F0AEFE9C
:104CA0001CD201208F4908600020091D0860276A76
:104CB000636A3A468C4910F0F3FC0546276A636A3A
:104CC0003A4610F0EDFC814610F065FEA063A06B43
:104CD00050220021FFF783FEA06301E00020A063C3
:104CE000A06B81B28148FCF777FEBDE8F0872DE923
:104CF000F04704467E48006810F06CFE2062616256
:104D0000256A616A00227B4B284610F08FFE1DD277
:104D10000020794908600120091D0860276A636A3C
:104D20003A460020704910F0BBFC8146276A636A4E
:104D30003A4610F0B5FC054610F02DFEA063A06BBE
:104D400082220021FFF74BFEA06326E0256A616AFC
:104D50000022634B284610F051FE1CD20120664908
:104D600008600020091D0860276A636A3A465E49A8
:104D700010F096FC0546276A636A3A4610F090FCEC
:104D8000814610F008FEA063A06B82220021FFF78D
:104D900026FEA06301E00020A063A06B81B253480F
:104DA000FCF716FEBDE8F08710B50120524908391E
:104DB000086000205149C1F8B0010120494908317B
:104DC000086000204E49C1F8AC014E48008881B20D
:104DD0004648FCF7FFFD4B48008881B24348FCF78A
:104DE000FDFD4948FFF783FF4848FFF703FF10BD6B
:104DF00010B5002040490839086001203F49C1F83A
:104E0000B001002037490831086001203C49C1F851
:104E1000AC013C48008881B23448FCF7DBFD3948DE
:104E2000008881B23148FCF7D9FD3748FFF75FFFB2
:104E30003648FFF7DFFE10BD10B501202E490839B6
:104E4000086000202D49C1F8B801314801682E489A
:104E5000FFF70AFB2F48FFF72AFE2C48FFF7CAFE90
:104E600010BD10B5002024490839086001202349ED
:104E7000C1F8B801264801682348FFF7F5FA25482C
:104E8000FFF715FE2148FFF7B5FE10BD10B5012054
:104E90001949091F086000201849C1F8B4011E48CB
:104EA00001681C48FFF757FB1748FFF720FF1B4816
:104EB000FFF7A0FD10BD10B500200F49091F0860C5
:104EC00001200E49C1F8B401134801681148FFF7E9
:104ED00042FB0D48FFF70BFF1048FFF78BFD10BD9D
:104EE0000000F0BFA08122420000594000080040AD
:104EF000500000200000F03FB40124420000244292
:104F00000080224298000020900200201003002020
:104F100088000020D00200208C00002050030020D8
:104F200008B54FF4E060FBF70FFA36208DF800006B
:104F300001208DF801008DF802006846FBF709FAA0
:104F400008BD0EB501211020FBF723FE40F2E7302B
:104F5000ADF8040040F2CF20ADF800000020ADF81D
:104F600002006946FE48FBF73FFF01224121FC4851
:104F7000FCF7B1FA0121FA48FCF792FA0EBD10B520
:104F8000FFF7CEFFFFF7DDFF10BD10B50121F4489C
:104F9000FCF74FFD00287DD00121F148FCF75AFDB8
:104FA000F0480078012803D0EE480078022838D174
:104FB000ED48006838BBEC48001F006818BBE948A2
:104FC0000078022808D1E9488079012804D1E7480F
:104FD0000069401CE5490861E2480078012808D1D1
:104FE000E2488079012804D1E0480069401EDF4989
:104FF0000861DE480069002802DC0020DB49086106
:105000000020DA498871D8480068012809D1D648BB
:10501000001F0068012804D1D4498871002048711C
:10502000C871D0480078032803D0CE4800780428FF
:105030007ED1CF48006870BBCD480C30006850BBB3
:10504000CB480830006830BBC8484078012808D1F8
:10505000C6480078012804D1C448C068401CC34930
:10506000C860C248C07801280ED1C0480078012825
:105070000AD1BE48C068401EBC49C8600846C06826
:10508000002801DC0020C8600020B8490870487082
:10509000887001E062E100E0C870B548006801284E
:1050A00018D1B3480C300068A0B9B1480830006886
:1050B00080B9AE488078012809D1AC48C078012871
:1050C00005D10020A9498870C8700120087001200E
:1050D000A6494870A648006868B9A5480C30006821
:1050E000012808D1A2480830006820B901209F4952
:1050F0008870002008709E480068C8B99C480C3031
:105100000068A8B99A4808300068012812D1974869
:105110004078012809D195488078012805D10020E0
:105120009249487088700120087001208F4900E082
:1051300000E0C8708F4A9049904807F000FA28BBF9
:105140008C48006880F000448D480168204610F0CB
:105150007EF98C4908608C498A48006810F09AFCF6
:1051600007D28A498748006810F01FF9854908600E
:105170000CE087498348006810F096FC06D283490A
:105180008048006810F063F97E490860754800782F
:10519000092821D2DFE800F005080B0E1114171AB8
:1051A0001D00FFF70AFC18E0FFF7DEFC15E0FFF733
:1051B000FEFC12E0FFF7F8FD0FE0FFF719FE0CE030
:1051C000FFF73AFE09E0FFF74CFE06E0FFF75EFE50
:1051D00003E0FFF770FE00E000BF00BF6148007809
:1051E000012803D05F480078022838D15E48006863
:1051F00038BB5D48001F006818BB5A480078022879
:1052000008D15A488079012804D158480069401CC7
:105210005649086153480078012808D153488079DD
:10522000012804D151480069401E504908614F4887
:105230000069002802DC00204C49086100204B492D
:10524000887149480068012809D14748001F006853
:10525000012804D14549887100204871C87141482E
:105260000078032803D03F480078042876D14048CE
:10527000006868BB3E480C30006848BB3C480830BA
:10528000006828BB39484078012808D137480078A1
:10529000012804D13548C068401C3449C8603348EF
:1052A000C07801280ED13148007801280AD12F4852
:1052B000C068401E2D49C8600846C068002801DC4F
:1052C0000020C86000202949087048708870C870A4
:1052D00027480068012818D125480C300068A0B97B
:1052E00023480830006880B920488078012809D117
:1052F0001E48C078012805D100201C498870C8705C
:10530000012008700120194948701948006868B9DF
:1053100017480C300068012808D11548083000688B
:1053200020B90120114988700020087010480068D9
:10533000A0B90F480C30006880B90D4808300068EB
:1053400001282DD109484078012826D107488078C6
:10535000012822D10020054948701BE020E0000010
:1053600000100040B50000200C0124425C02002027
:10537000008123424800002044000020400000201B
:105380004C00002050000020000034C30000B44353
:105390000000344388700120087001200149C87062
:1053A00010BD00005C02002008B501211020FBF7B1
:1053B000E3FB4020ADF8000018208DF80300032027
:1053C0008DF8020069469C48FBF71AF98020ADF879
:1053D000000069469848FBF713F94FF48070ADF868
:1053E000000069469448FBF70BF908BD00B587B08B
:1053F00001214803FBF7C0FB04A8FCF721F804A82F
:10540000FCF71EF840F2E730ADF81400EF20ADF8DD
:1054100010000020ADF81600ADF812008DF818004D
:1054200004A98648FBF7E0FC01218448FCF712FB45
:1054300001218248FCF78CFA6020ADF800000120C1
:10544000ADF802000020ADF804004FF4AF70ADF8E5
:1054500006000020ADF808004FF48070ADF80C0095
:105460000020ADF80E0069467448FBF7FAFC0821ED
:105470007248FCF745F940F28F20ADF80600694606
:105480006E48FBF730FD08216C48FCF742F940F20A
:10549000DB10ADF8060069466848FBF771FD08218E
:1054A0006648FCF743F901216448FCF7F9F801214B
:1054B0006248FBF7F5FF01216048FBF7FDFF07B0ED
:1054C00000BD08B5012211465C48FCF704F82C2009
:1054D0008DF8000002208DF8010001208DF80200F7
:1054E0008DF803006846FAF734FF08BD10B5FFF7E2
:1054F0005BFFFFF77BFF10BD10B55148C079012855
:105500001AD1504800880A304E4908800846008861
:1055100040F2DE31884202DB08464A4908804948A9
:1055200001884648FCF754FA4648018846A010F026
:10553000B1FC00204249C8714148007A012817D1C6
:10554000404800880A383F49088008460088A0285B
:1055500001DCA02008803B4801883848FCF738FA75
:105560003848018838A010F095FC002034490872B2
:105570003348407A01281AD1374800880A30364922
:1055800008800846008840F2DE31884202DB084687
:1055900031490880304801882848FCF71BFA2E481A
:1055A00001882EA010F076FC00202549487224487E
:1055B000807A012819D1284800880A3826490880AD
:1055C00008460088B0F5967F02DC4FF4967008809C
:1055D000214801881948FCF7FDF91F4801881FA0E0
:1055E00010F058FC00201649887210BD10B5002438
:1055F0004FF48C740BE0A1B21048FCF7E9F9214696
:1056000013A010F047FC1948FCF769FE1434B4F5F8
:10561000D27FF0DB0BE0A1B20848FCF7D9F92146B4
:105620000BA010F037FC1248FCF759FE143CB4F5FF
:105630008C7FF0DC10BD0000001001400034014000
:105640004C0200202C00002074696D386368313DE5
:1056500025640D0A000000002E00002074696D38DA
:105660006368323D25640D0A00000000C0B60600E4
:10567000400D030010B54FF48051FA48FBF76DF868
:105680004FF40051F748FBF768F84FF40051F54824
:10569000FBF765F84FF48051F248FBF760F810BD56
:1056A00010B54FF48041EF48FBF757F84FF4004135
:1056B000EC48FBF752F84FF40041EA48FBF74FF88B
:1056C0004FF48041E748FBF74AF810BD10B54FF49E
:1056D0008051E448FBF741F84FF40051E148FBF7F3
:1056E0003EF84FF40051DF48FBF737F810BD10B516
:1056F0004FF48041DB48FBF730F84FF40041D948C4
:10570000FBF72DF84FF40041D648FBF726F810BD03
:1057100010B54FF48051D348FBF71FF84FF4805178
:10572000D048FBF71CF810BD10B54FF48041CD48B0
:10573000FBF713F84FF48041CA48FBF710F810BD8F
:105740002DE9F04105462C464FF48051C548FBF742
:1057500006F800261CE0274607F08007802F04D1BA
:10576000B901C048FAF7F9FF04E04FF40051BD4811
:10577000FAF7F5FF6006040E4FF48051B948FAF7C6
:10578000ECFF4FF48051B748FAF7E9FF701CC6B23E
:10579000082EE0DBBDE8F0812DE9F04105462C46FE
:1057A0004FF48041AF48FAF7DAFF00261CE02746A5
:1057B00007F08007802F04D13902AA48FAF7CDFFFD
:1057C00004E04FF40041A748FAF7C9FF6006040E51
:1057D0004FF48041A348FAF7C0FF4FF48041A1483D
:1057E000FAF7BDFF701CC6B2082EE0DBBDE8F08101
:1057F00010B50446FFF73EFF7820FFF7A1FFFFF743
:1058000087FF0020FFF79CFFFFF782FF2046FFF78E
:1058100097FFFFF77DFFFFF759FF10BD10B5044656
:10582000FFF73EFF7820FFF7B7FFFFF77DFF00206F
:10583000FFF7B2FFFFF778FF2046FFF7ADFFFFF756
:1058400073FFFFF754FF10BD10B50446FFF712FFBA
:105850007820FFF775FFFFF75BFF4020FFF770FF31
:10586000FFF756FF2046FFF76BFFFFF751FFFFF7EB
:105870002DFF10BD10B50446FFF712FF7820FFF78B
:105880008BFFFFF751FF4020FFF786FFFFF74CFF2C
:105890002046FFF781FFFFF747FFFFF728FF10BD06
:1058A00070B504460D461DB1E0B2FFF7CDFF02E032
:1058B000E0B2FFF79DFF70BD70B504460D461DB107
:1058C000E0B2FFF7D7FF02E0E0B2FFF7A7FF70BD3D
:1058D00070B50646002418E004F1B0000021FFF77F
:1058E000DFFF00210846FFF7DBFF00211020FFF754
:1058F000D7FF002505E001213046FFF7D1FF681CE6
:10590000C5B2802DF7DB601CC4B2082CE4DB70BD8F
:1059100070B50646002418E004F1B0000021FFF73E
:10592000CBFF00210846FFF7C7FF00211020FFF73B
:10593000C3FF002505E001213046FFF7BDFF681CCD
:10594000C5B2802DF7DB601CC4B2082CE4DB70BD4F
:1059500006E041F6650100E0491E0029FCD1401E29
:105960000028F6D17047014605E0002001E0421C06
:10597000D0B27B28FBDB0A00A1F10101F5D1704711
:1059800070B504460D4605F1B0000021FFF788FF11
:10599000102141EA14100021FFF782FF04F00F00EC
:1059A0000021FFF77DFF70BD70B504460D4605F17F
:1059B000B0000021FFF780FF102141EA1410002100
:1059C000FFF77AFF04F00F000021FFF775FF70BDAD
:1059D00010B500218D20FFF763FF00211420FFF791
:1059E0005FFF0021AF20FFF75BFF10BD10B5002166
:1059F0008D20FFF761FF00211420FFF75DFF0021DC
:105A0000AF20FFF759FF10BD10B500218D20FFF723
:105A100047FF00211020FFF743FF0021AE20FFF7D2
:105A20003FFF10BD10B500218D20FFF745FF00217D
:105A30001020FFF741FF0021AE20FFF73DFF10BD12
:105A400070B500241AE004F1B0000021FFF728FF30
:105A500000210846FFF724FF00211020FFF720FF58
:105A6000002507E0000C014001210020FFF718FF8E
:105A7000681CC5B2802DF7DB601CC4B2082CE2DBC9
:105A800070BD70B5002418E004F1B0000021FFF7EC
:105A900013FF00210846FFF70FFF00211020FFF73A
:105AA0000BFF002505E001210020FFF705FF681C22
:105AB000C5B2802DF7DB601CC4B2082CE4DB70BDDE
:105AC00070B5022418E004F1B0000021FFF7E8FEF1
:105AD00000210846FFF7E4FE00211020FFF7E0FE5A
